{
  "_format": "hh-sol-artifact-1",
  "contractName": "Blog",
  "sourceName": "contracts/Blog.sol",
  "abi": [
    {
      "inputs": [
        {
          "internalType": "string",
          "name": "_name",
          "type": "string"
        }
      ],
      "stateMutability": "nonpayable",
      "type": "constructor"
    },
    {
      "anonymous": false,
      "inputs": [
        {
          "indexed": false,
          "internalType": "uint256",
          "name": "postId",
          "type": "uint256"
        },
        {
          "indexed": false,
          "internalType": "string",
          "name": "title",
          "type": "string"
        },
        {
          "indexed": false,
          "internalType": "string",
          "name": "hash",
          "type": "string"
        }
      ],
      "name": "PostCreated",
      "type": "event"
    },
    {
      "anonymous": false,
      "inputs": [
        {
          "indexed": false,
          "internalType": "uint256",
          "name": "postId",
          "type": "uint256"
        },
        {
          "indexed": false,
          "internalType": "string",
          "name": "title",
          "type": "string"
        },
        {
          "indexed": false,
          "internalType": "string",
          "name": "hash",
          "type": "string"
        },
        {
          "indexed": false,
          "internalType": "bool",
          "name": "published",
          "type": "bool"
        }
      ],
      "name": "PostUpdated",
      "type": "event"
    },
    {
      "inputs": [
        {
          "internalType": "string",
          "name": "title",
          "type": "string"
        },
        {
          "internalType": "string",
          "name": "hash",
          "type": "string"
        }
      ],
      "name": "createPost",
      "outputs": [],
      "stateMutability": "nonpayable",
      "type": "function"
    },
    {
      "inputs": [
        {
          "internalType": "string",
          "name": "hash",
          "type": "string"
        }
      ],
      "name": "fetchPost",
      "outputs": [
        {
          "components": [
            {
              "internalType": "uint256",
              "name": "id",
              "type": "uint256"
            },
            {
              "internalType": "string",
              "name": "title",
              "type": "string"
            },
            {
              "internalType": "string",
              "name": "content",
              "type": "string"
            },
            {
              "internalType": "bool",
              "name": "published",
              "type": "bool"
            }
          ],
          "internalType": "struct Blog.Post",
          "name": "",
          "type": "tuple"
        }
      ],
      "stateMutability": "view",
      "type": "function"
    },
    {
      "inputs": [],
      "name": "fetchPosts",
      "outputs": [
        {
          "components": [
            {
              "internalType": "uint256",
              "name": "id",
              "type": "uint256"
            },
            {
              "internalType": "string",
              "name": "title",
              "type": "string"
            },
            {
              "internalType": "string",
              "name": "content",
              "type": "string"
            },
            {
              "internalType": "bool",
              "name": "published",
              "type": "bool"
            }
          ],
          "internalType": "struct Blog.Post[]",
          "name": "",
          "type": "tuple[]"
        }
      ],
      "stateMutability": "view",
      "type": "function"
    },
    {
      "inputs": [],
      "name": "name",
      "outputs": [
        {
          "internalType": "string",
          "name": "",
          "type": "string"
        }
      ],
      "stateMutability": "view",
      "type": "function"
    },
    {
      "inputs": [],
      "name": "owner",
      "outputs": [
        {
          "internalType": "address",
          "name": "",
          "type": "address"
        }
      ],
      "stateMutability": "view",
      "type": "function"
    },
    {
      "inputs": [
        {
          "internalType": "address",
          "name": "_newOwner",
          "type": "address"
        }
      ],
      "name": "transferOwnership",
      "outputs": [],
      "stateMutability": "nonpayable",
      "type": "function"
    },
    {
      "inputs": [
        {
          "internalType": "string",
          "name": "_name",
          "type": "string"
        }
      ],
      "name": "updateName",
      "outputs": [],
      "stateMutability": "nonpayable",
      "type": "function"
    },
    {
      "inputs": [
        {
          "internalType": "uint256",
          "name": "postId",
          "type": "uint256"
        },
        {
          "internalType": "string",
          "name": "title",
          "type": "string"
        },
        {
          "internalType": "string",
          "name": "hash",
          "type": "string"
        },
        {
          "internalType": "bool",
          "name": "published",
          "type": "bool"
        }
      ],
      "name": "updatePost",
      "outputs": [],
      "stateMutability": "nonpayable",
      "type": "function"
    }
  ],
  "bytecode": "0x60806040523480156200001157600080fd5b5060405162001aa138038062001aa18339818101604052810190620000379190620002e5565b80600190805190602001906200004f92919062000098565b5033600260006101000a81548173ffffffffffffffffffffffffffffffffffffffff021916908373ffffffffffffffffffffffffffffffffffffffff160217905550506200039a565b828054620000a69062000365565b90600052602060002090601f016020900481019282620000ca576000855562000116565b82601f10620000e557805160ff191683800117855562000116565b8280016001018555821562000116579182015b8281111562000115578251825591602001919060010190620000f8565b5b50905062000125919062000129565b5090565b5b80821115620001445760008160009055506001016200012a565b5090565b6000604051905090565b600080fd5b600080fd5b600080fd5b600080fd5b6000601f19601f8301169050919050565b7f4e487b7100000000000000000000000000000000000000000000000000000000600052604160045260246000fd5b620001b18262000166565b810181811067ffffffffffffffff82111715620001d357620001d262000177565b5b80604052505050565b6000620001e862000148565b9050620001f68282620001a6565b919050565b600067ffffffffffffffff82111562000219576200021862000177565b5b620002248262000166565b9050602081019050919050565b60005b838110156200025157808201518184015260208101905062000234565b8381111562000261576000848401525b50505050565b60006200027e6200027884620001fb565b620001dc565b9050828152602081018484840111156200029d576200029c62000161565b5b620002aa84828562000231565b509392505050565b600082601f830112620002ca57620002c96200015c565b5b8151620002dc84826020860162000267565b91505092915050565b600060208284031215620002fe57620002fd62000152565b5b600082015167ffffffffffffffff8111156200031f576200031e62000157565b5b6200032d84828501620002b2565b91505092915050565b7f4e487b7100000000000000000000000000000000000000000000000000000000600052602260045260246000fd5b600060028204905060018216806200037e57607f821691505b60208210810362000394576200039362000336565b5b50919050565b6116f780620003aa6000396000f3fe608060405234801561001057600080fd5b50600436106100885760003560e01c80638da5cb5b1161005b5780638da5cb5b14610113578063abaddd7f14610131578063cd349fe91461014f578063f2fde38b1461016b57610088565b806306fdde031461008d578063392338f5146100ab57806344828659146100c757806384da92a7146100f7575b600080fd5b610095610187565b6040516100a29190610d9a565b60405180910390f35b6100c560048036038101906100c09190610f05565b610215565b005b6100e160048036038101906100dc9190610f7d565b610406565b6040516100ee91906110ae565b60405180910390f35b610111600480360381019061010c9190610f7d565b610587565b005b61011b610631565b6040516101289190611111565b60405180910390f35b610139610657565b6040516101469190611258565b60405180910390f35b610169600480360381019061016491906112d2565b61086f565b005b6101856004803603810190610180919061139d565b610ad3565b005b60018054610194906113f9565b80601f01602080910402602001604051908101604052809291908181526020018280546101c0906113f9565b801561020d5780601f106101e25761010080835404028352916020019161020d565b820191906000526020600020905b8154815290600101906020018083116101f057829003601f168201915b505050505081565b600260009054906101000a900473ffffffffffffffffffffffffffffffffffffffff1673ffffffffffffffffffffffffffffffffffffffff163373ffffffffffffffffffffffffffffffffffffffff16146102a5576040517f08c379a000000000000000000000000000000000000000000000000000000000815260040161029c9061149c565b60405180910390fd5b600080600081546102b5906114eb565b91905081905590506000600360008381526020019081526020016000209050818160000181905550838160010190805190602001906102f5929190610ba7565b5060018160030160006101000a81548160ff0219169083151502179055508281600201908051906020019061032b929190610ba7565b508060048460405161033d919061156f565b9081526020016040518091039020600082015481600001556001820181600101908054610369906113f9565b610374929190610c2d565b506002820181600201908054610389906113f9565b610394929190610c2d565b506003820160009054906101000a900460ff168160030160006101000a81548160ff0219169083151502179055509050507fe6851f0b99a9d86e5d68a97f65218980851216ce297f789c6b6b7e82ca1d90c88285856040516103f893929190611595565b60405180910390a150505050565b61040e610cba565b60048260405161041e919061156f565b908152602001604051809103902060405180608001604052908160008201548152602001600182018054610451906113f9565b80601f016020809104026020016040519081016040528092919081815260200182805461047d906113f9565b80156104ca5780601f1061049f576101008083540402835291602001916104ca565b820191906000526020600020905b8154815290600101906020018083116104ad57829003601f168201915b505050505081526020016002820180546104e3906113f9565b80601f016020809104026020016040519081016040528092919081815260200182805461050f906113f9565b801561055c5780601f106105315761010080835404028352916020019161055c565b820191906000526020600020905b81548152906001019060200180831161053f57829003601f168201915b505050505081526020016003820160009054906101000a900460ff1615151515815250509050919050565b600260009054906101000a900473ffffffffffffffffffffffffffffffffffffffff1673ffffffffffffffffffffffffffffffffffffffff163373ffffffffffffffffffffffffffffffffffffffff1614610617576040517f08c379a000000000000000000000000000000000000000000000000000000000815260040161060e9061149c565b60405180910390fd5b806001908051906020019061062d929190610ba7565b5050565b600260009054906101000a900473ffffffffffffffffffffffffffffffffffffffff1681565b606060008054905060008167ffffffffffffffff81111561067b5761067a610dda565b5b6040519080825280602002602001820160405280156106b457816020015b6106a1610cba565b8152602001906001900390816106995790505b50905060005b82811015610866576000600360006001846106d591906115da565b81526020019081526020016000209050806040518060800160405290816000820154815260200160018201805461070b906113f9565b80601f0160208091040260200160405190810160405280929190818152602001828054610737906113f9565b80156107845780601f1061075957610100808354040283529160200191610784565b820191906000526020600020905b81548152906001019060200180831161076757829003601f168201915b5050505050815260200160028201805461079d906113f9565b80601f01602080910402602001604051908101604052809291908181526020018280546107c9906113f9565b80156108165780601f106107eb57610100808354040283529160200191610816565b820191906000526020600020905b8154815290600101906020018083116107f957829003601f168201915b505050505081526020016003820160009054906101000a900460ff16151515158152505083838151811061084d5761084c611630565b5b60200260200101819052508180600101925050506106ba565b50809250505090565b600260009054906101000a900473ffffffffffffffffffffffffffffffffffffffff1673ffffffffffffffffffffffffffffffffffffffff163373ffffffffffffffffffffffffffffffffffffffff16146108ff576040517f08c379a00000000000000000000000000000000000000000000000000000000081526004016108f69061149c565b60405180910390fd5b60006003600086815260200190815260200160002090508381600101908051906020019061092e929190610ba7565b50818160030160006101000a81548160ff02191690831515021790555082816002019080519060200190610963929190610ba7565b508060036000878152602001908152602001600020600082015481600001556001820181600101908054610996906113f9565b6109a1929190610c2d565b5060028201816002019080546109b6906113f9565b6109c1929190610c2d565b506003820160009054906101000a900460ff168160030160006101000a81548160ff02191690831515021790555090505080600484604051610a03919061156f565b9081526020016040518091039020600082015481600001556001820181600101908054610a2f906113f9565b610a3a929190610c2d565b506002820181600201908054610a4f906113f9565b610a5a929190610c2d565b506003820160009054906101000a900460ff168160030160006101000a81548160ff0219169083151502179055509050507f9f8eb93fc073102bbd3072664634ab200707a4f11d94aace9cc8d0e4d019eff58160000154858585604051610ac4949392919061166e565b60405180910390a15050505050565b600260009054906101000a900473ffffffffffffffffffffffffffffffffffffffff1673ffffffffffffffffffffffffffffffffffffffff163373ffffffffffffffffffffffffffffffffffffffff1614610b63576040517f08c379a0000000000000000000000000000000000000000000000000000000008152600401610b5a9061149c565b60405180910390fd5b80600260006101000a81548173ffffffffffffffffffffffffffffffffffffffff021916908373ffffffffffffffffffffffffffffffffffffffff16021790555050565b828054610bb3906113f9565b90600052602060002090601f016020900481019282610bd55760008555610c1c565b82601f10610bee57805160ff1916838001178555610c1c565b82800160010185558215610c1c579182015b82811115610c1b578251825591602001919060010190610c00565b5b509050610c299190610ce4565b5090565b828054610c39906113f9565b90600052602060002090601f016020900481019282610c5b5760008555610ca9565b82601f10610c6c5780548555610ca9565b82800160010185558215610ca957600052602060002091601f016020900482015b82811115610ca8578254825591600101919060010190610c8d565b5b509050610cb69190610ce4565b5090565b60405180608001604052806000815260200160608152602001606081526020016000151581525090565b5b80821115610cfd576000816000905550600101610ce5565b5090565b600081519050919050565b600082825260208201905092915050565b60005b83811015610d3b578082015181840152602081019050610d20565b83811115610d4a576000848401525b50505050565b6000601f19601f8301169050919050565b6000610d6c82610d01565b610d768185610d0c565b9350610d86818560208601610d1d565b610d8f81610d50565b840191505092915050565b60006020820190508181036000830152610db48184610d61565b905092915050565b6000604051905090565b600080fd5b600080fd5b600080fd5b600080fd5b7f4e487b7100000000000000000000000000000000000000000000000000000000600052604160045260246000fd5b610e1282610d50565b810181811067ffffffffffffffff82111715610e3157610e30610dda565b5b80604052505050565b6000610e44610dbc565b9050610e508282610e09565b919050565b600067ffffffffffffffff821115610e7057610e6f610dda565b5b610e7982610d50565b9050602081019050919050565b82818337600083830152505050565b6000610ea8610ea384610e55565b610e3a565b905082815260208101848484011115610ec457610ec3610dd5565b5b610ecf848285610e86565b509392505050565b600082601f830112610eec57610eeb610dd0565b5b8135610efc848260208601610e95565b91505092915050565b60008060408385031215610f1c57610f1b610dc6565b5b600083013567ffffffffffffffff811115610f3a57610f39610dcb565b5b610f4685828601610ed7565b925050602083013567ffffffffffffffff811115610f6757610f66610dcb565b5b610f7385828601610ed7565b9150509250929050565b600060208284031215610f9357610f92610dc6565b5b600082013567ffffffffffffffff811115610fb157610fb0610dcb565b5b610fbd84828501610ed7565b91505092915050565b6000819050919050565b610fd981610fc6565b82525050565b600082825260208201905092915050565b6000610ffb82610d01565b6110058185610fdf565b9350611015818560208601610d1d565b61101e81610d50565b840191505092915050565b60008115159050919050565b61103e81611029565b82525050565b600060808301600083015161105c6000860182610fd0565b50602083015184820360208601526110748282610ff0565b9150506040830151848203604086015261108e8282610ff0565b91505060608301516110a36060860182611035565b508091505092915050565b600060208201905081810360008301526110c88184611044565b905092915050565b600073ffffffffffffffffffffffffffffffffffffffff82169050919050565b60006110fb826110d0565b9050919050565b61110b816110f0565b82525050565b60006020820190506111266000830184611102565b92915050565b600081519050919050565b600082825260208201905092915050565b6000819050602082019050919050565b60006080830160008301516111706000860182610fd0565b50602083015184820360208601526111888282610ff0565b915050604083015184820360408601526111a28282610ff0565b91505060608301516111b76060860182611035565b508091505092915050565b60006111ce8383611158565b905092915050565b6000602082019050919050565b60006111ee8261112c565b6111f88185611137565b93508360208202850161120a85611148565b8060005b85811015611246578484038952815161122785826111c2565b9450611232836111d6565b925060208a0199505060018101905061120e565b50829750879550505050505092915050565b6000602082019050818103600083015261127281846111e3565b905092915050565b61128381610fc6565b811461128e57600080fd5b50565b6000813590506112a08161127a565b92915050565b6112af81611029565b81146112ba57600080fd5b50565b6000813590506112cc816112a6565b92915050565b600080600080608085870312156112ec576112eb610dc6565b5b60006112fa87828801611291565b945050602085013567ffffffffffffffff81111561131b5761131a610dcb565b5b61132787828801610ed7565b935050604085013567ffffffffffffffff81111561134857611347610dcb565b5b61135487828801610ed7565b9250506060611365878288016112bd565b91505092959194509250565b61137a816110f0565b811461138557600080fd5b50565b60008135905061139781611371565b92915050565b6000602082840312156113b3576113b2610dc6565b5b60006113c184828501611388565b91505092915050565b7f4e487b7100000000000000000000000000000000000000000000000000000000600052602260045260246000fd5b6000600282049050600182168061141157607f821691505b602082108103611424576114236113ca565b5b50919050565b7f4f6e6c79206f776e65722063616e2063616c6c20746869732066756e6374696f60008201527f6e00000000000000000000000000000000000000000000000000000000000000602082015250565b6000611486602183610d0c565b91506114918261142a565b604082019050919050565b600060208201905081810360008301526114b581611479565b9050919050565b7f4e487b7100000000000000000000000000000000000000000000000000000000600052601160045260246000fd5b60006114f682610fc6565b91507fffffffffffffffffffffffffffffffffffffffffffffffffffffffffffffffff8203611528576115276114bc565b5b600182019050919050565b600081905092915050565b600061154982610d01565b6115538185611533565b9350611563818560208601610d1d565b80840191505092915050565b600061157b828461153e565b915081905092915050565b61158f81610fc6565b82525050565b60006060820190506115aa6000830186611586565b81810360208301526115bc8185610d61565b905081810360408301526115d08184610d61565b9050949350505050565b60006115e582610fc6565b91506115f083610fc6565b9250827fffffffffffffffffffffffffffffffffffffffffffffffffffffffffffffffff03821115611625576116246114bc565b5b828201905092915050565b7f4e487b7100000000000000000000000000000000000000000000000000000000600052603260045260246000fd5b61166881611029565b82525050565b60006080820190506116836000830187611586565b81810360208301526116958186610d61565b905081810360408301526116a98185610d61565b90506116b8606083018461165f565b9594505050505056fea2646970667358221220547fd4426466d897964caf9ac02f6d185c341ceecfa1d24ce35d109bd075839d64736f6c634300080d0033",
  "linkReferences": {},
  "deployedLinkReferences": {}
}